{
  "_format": "hh-sol-artifact-1",
  "contractName": "ENSAddressBook",
  "sourceName": "contracts/ENSAddressBook.sol",
  "abi": [
    {
      "inputs": [
        {
          "internalType": "address",
          "name": "_ensRegistry",
          "type": "address"
        }
      ],
      "stateMutability": "nonpayable",
      "type": "constructor"
    },
    {
      "inputs": [
        {
          "internalType": "string",
          "name": "ensName",
          "type": "string"
        }
      ],
      "name": "ENSAlreadyRegistered",
      "type": "error"
    },
    {
      "inputs": [
        {
          "internalType": "address",
          "name": "owner",
          "type": "address"
        }
      ],
      "name": "OwnableInvalidOwner",
      "type": "error"
    },
    {
      "inputs": [
        {
          "internalType": "address",
          "name": "account",
          "type": "address"
        }
      ],
      "name": "OwnableUnauthorizedAccount",
      "type": "error"
    },
    {
      "anonymous": false,
      "inputs": [
        {
          "indexed": true,
          "internalType": "bytes32",
          "name": "ensHash",
          "type": "bytes32"
        },
        {
          "indexed": true,
          "internalType": "address",
          "name": "eoaAddress",
          "type": "address"
        },
        {
          "indexed": false,
          "internalType": "string",
          "name": "ensName",
          "type": "string"
        }
      ],
      "name": "ENSMappingAdded",
      "type": "event"
    },
    {
      "anonymous": false,
      "inputs": [
        {
          "indexed": true,
          "internalType": "bytes32",
          "name": "ensHash",
          "type": "bytes32"
        },
        {
          "indexed": false,
          "internalType": "string",
          "name": "ensName",
          "type": "string"
        }
      ],
      "name": "ENSMappingRemoved",
      "type": "event"
    },
    {
      "anonymous": false,
      "inputs": [
        {
          "indexed": true,
          "internalType": "bytes32",
          "name": "ensHash",
          "type": "bytes32"
        },
        {
          "indexed": true,
          "internalType": "address",
          "name": "newEoaAddress",
          "type": "address"
        },
        {
          "indexed": false,
          "internalType": "string",
          "name": "ensName",
          "type": "string"
        }
      ],
      "name": "ENSMappingUpdated",
      "type": "event"
    },
    {
      "anonymous": false,
      "inputs": [
        {
          "indexed": true,
          "internalType": "address",
          "name": "previousOwner",
          "type": "address"
        },
        {
          "indexed": true,
          "internalType": "address",
          "name": "newOwner",
          "type": "address"
        }
      ],
      "name": "OwnershipTransferred",
      "type": "event"
    },
    {
      "inputs": [
        {
          "internalType": "string[]",
          "name": "ensNames",
          "type": "string[]"
        },
        {
          "internalType": "address[]",
          "name": "eoaAddresses",
          "type": "address[]"
        }
      ],
      "name": "batchRegisterENS",
      "outputs": [],
      "stateMutability": "nonpayable",
      "type": "function"
    },
    {
      "inputs": [
        {
          "internalType": "string[]",
          "name": "ensNames",
          "type": "string[]"
        }
      ],
      "name": "batchResolveENS",
      "outputs": [
        {
          "internalType": "address[]",
          "name": "",
          "type": "address[]"
        }
      ],
      "stateMutability": "view",
      "type": "function"
    },
    {
      "inputs": [],
      "name": "ensRegistry",
      "outputs": [
        {
          "internalType": "contract ENS",
          "name": "",
          "type": "address"
        }
      ],
      "stateMutability": "view",
      "type": "function"
    },
    {
      "inputs": [
        {
          "internalType": "bytes32",
          "name": "",
          "type": "bytes32"
        }
      ],
      "name": "ensToEOA",
      "outputs": [
        {
          "internalType": "address",
          "name": "",
          "type": "address"
        }
      ],
      "stateMutability": "view",
      "type": "function"
    },
    {
      "inputs": [
        {
          "internalType": "string",
          "name": "ensName",
          "type": "string"
        }
      ],
      "name": "isENSRegistered",
      "outputs": [
        {
          "internalType": "bool",
          "name": "",
          "type": "bool"
        }
      ],
      "stateMutability": "view",
      "type": "function"
    },
    {
      "inputs": [],
      "name": "owner",
      "outputs": [
        {
          "internalType": "address",
          "name": "",
          "type": "address"
        }
      ],
      "stateMutability": "view",
      "type": "function"
    },
    {
      "inputs": [
        {
          "internalType": "string",
          "name": "ensName",
          "type": "string"
        },
        {
          "internalType": "address",
          "name": "eoaAddress",
          "type": "address"
        }
      ],
      "name": "registerENS",
      "outputs": [],
      "stateMutability": "nonpayable",
      "type": "function"
    },
    {
      "inputs": [
        {
          "internalType": "string",
          "name": "ensName",
          "type": "string"
        }
      ],
      "name": "removeENS",
      "outputs": [],
      "stateMutability": "nonpayable",
      "type": "function"
    },
    {
      "inputs": [],
      "name": "renounceOwnership",
      "outputs": [],
      "stateMutability": "nonpayable",
      "type": "function"
    },
    {
      "inputs": [
        {
          "internalType": "string",
          "name": "ensName",
          "type": "string"
        }
      ],
      "name": "resolveENS",
      "outputs": [
        {
          "internalType": "address",
          "name": "",
          "type": "address"
        }
      ],
      "stateMutability": "view",
      "type": "function"
    },
    {
      "inputs": [
        {
          "internalType": "address",
          "name": "newOwner",
          "type": "address"
        }
      ],
      "name": "transferOwnership",
      "outputs": [],
      "stateMutability": "nonpayable",
      "type": "function"
    },
    {
      "inputs": [
        {
          "internalType": "string",
          "name": "ensName",
          "type": "string"
        },
        {
          "internalType": "address",
          "name": "newEoaAddress",
          "type": "address"
        }
      ],
      "name": "updateENS",
      "outputs": [],
      "stateMutability": "nonpayable",
      "type": "function"
    }
  ],
  "bytecode": "0x60a060405234801561001057600080fd5b5060405161123d38038061123d83398101604081905261002f91610117565b338061005657604051631e4fbdf760e01b8152600060048201526024015b60405180910390fd5b61005f816100c7565b506001600160a01b0381166100b65760405162461bcd60e51b815260206004820152601c60248201527f496e76616c696420454e53207265676973747279206164647265737300000000604482015260640161004d565b6001600160a01b0316608052610147565b600080546001600160a01b038381166001600160a01b0319831681178455604051919092169283917f8be0079c531659141344cd1fd0a4f28419497f9722a3daafe3b4186f6b6457e09190a35050565b60006020828403121561012957600080fd5b81516001600160a01b038116811461014057600080fd5b9392505050565b6080516110d4610169600039600081816101770152610b7c01526110d46000f3fe608060405234801561001057600080fd5b50600436106100b45760003560e01c80637d73b231116100715780637d73b231146101725780638da5cb5b14610199578063ca2c8369146101aa578063e26d6623146101bd578063ef2ce8d2146101d0578063f2fde38b146101e357600080fd5b80635734c011146100b95780635b69fec2146100e95780635d77e83f146100fe5780635f616de714610127578063659d8b2714610147578063715018a61461016a575b600080fd5b6100cc6100c7366004610d2c565b6101f6565b6040516001600160a01b0390911681526020015b60405180910390f35b6100fc6100f7366004610d2c565b610242565b005b6100cc61010c366004610d6e565b6001602052600090815260409020546001600160a01b031681565b61013a610135366004610dcc565b61038b565b6040516100e09190610e02565b61015a610155366004610d2c565b610485565b60405190151581526020016100e0565b6100fc6104cd565b6100cc7f000000000000000000000000000000000000000000000000000000000000000081565b6000546001600160a01b03166100cc565b6100fc6101b8366004610e63565b6104e1565b6100fc6101cb366004610e63565b610657565b6100fc6101de366004610eba565b6107f2565b6100fc6101f1366004610f2b565b610b06565b600080838360405160200161020c929190610f48565b60408051808303601f190181529181528151602092830120600090815260019092529020546001600160a01b0316949350505050565b60008282604051602001610257929190610f48565b6040516020818303038152906040528051906020012090506102b083838080601f016020809104026020016040519081016040528093929190818152602001838380828437600092019190915250339250610b44915050565b6102d55760405162461bcd60e51b81526004016102cc90610f58565b60405180910390fd5b6000818152600160205260409020546001600160a01b031661032e5760405162461bcd60e51b8152602060048201526012602482015271115394c81b9bdd081c9959da5cdd195c995960721b60448201526064016102cc565b6000818152600160205260409081902080546001600160a01b03191690555181907f06518a64def8fff03167c0dfb1fd05cdc3a2ade8550b25ec1c7300d56f62d1909061037e9086908690610f83565b60405180910390a2505050565b606060008267ffffffffffffffff8111156103a8576103a8610fb2565b6040519080825280602002602001820160405280156103d1578160200160208202803683370190505b50905060005b8381101561047d5760008585838181106103f3576103f3610fc8565b90506020028101906104059190610fde565b604051602001610416929190610f48565b60408051601f1981840301815291815281516020928301206000818152600190935291205484519192506001600160a01b03169084908490811061045c5761045c610fc8565b6001600160a01b0390921660209283029190910190910152506001016103d7565b509392505050565b60006104c683838080601f016020809104026020016040519081016040528093929190818152602001838380828437600092019190915250610c1b92505050565b9392505050565b6104d5610c66565b6104df6000610c93565b565b600083836040516020016104f6929190610f48565b60405160208183030381529060405280519060200120905061054f84848080601f016020809104026020016040519081016040528093929190818152602001838380828437600092019190915250339250610b44915050565b61056b5760405162461bcd60e51b81526004016102cc90610f58565b6001600160a01b0382166105915760405162461bcd60e51b81526004016102cc90611025565b6000818152600160205260409020546001600160a01b03166105ea5760405162461bcd60e51b8152602060048201526012602482015271115394c81b9bdd081c9959da5cdd195c995960721b60448201526064016102cc565b6000818152600160205260409081902080546001600160a01b0319166001600160a01b038516908117909155905182907f06413ccccfaaacb5c1c0a5b47ff483685e2aaf4513aef4fce6b6bbc63f23d988906106499088908890610f83565b60405180910390a350505050565b6000838360405160200161066c929190610f48565b6040516020818303038152906040528051906020012090506106c584848080601f016020809104026020016040519081016040528093929190818152602001838380828437600092019190915250339250610b44915050565b6106e15760405162461bcd60e51b81526004016102cc90610f58565b6001600160a01b0382166107075760405162461bcd60e51b81526004016102cc90611025565b61074684848080601f016020809104026020016040519081016040528093929190818152602001838380828437600092019190915250610c1b92505050565b156107935760405162461bcd60e51b815260206004820152601b60248201527f454e53206e616d6520616c72656164792072656769737465726564000000000060448201526064016102cc565b6000818152600160205260409081902080546001600160a01b0319166001600160a01b038516908117909155905182907fcb00c173a20fb0fc4b9d0569677df64ef239858343352e1a20b1cfa4bc866662906106499088908890610f83565b8281146108415760405162461bcd60e51b815260206004820152601860248201527f4172726179206c656e67746873206d757374206d61746368000000000000000060448201526064016102cc565b60005b83811015610aff576108af85858381811061086157610861610fc8565b90506020028101906108739190610fde565b8080601f016020809104026020016040519081016040528093929190818152602001838380828437600092019190915250339250610b44915050565b6108cb5760405162461bcd60e51b81526004016102cc90610f58565b60008383838181106108df576108df610fc8565b90506020020160208101906108f49190610f2b565b6001600160a01b03160361091a5760405162461bcd60e51b81526004016102cc90611025565b61097b85858381811061092f5761092f610fc8565b90506020028101906109419190610fde565b8080601f016020809104026020016040519081016040528093929190818152602001838380828437600092019190915250610c1b92505050565b156109c85760405162461bcd60e51b815260206004820152601b60248201527f454e53206e616d6520616c72656164792072656769737465726564000000000060448201526064016102cc565b60008585838181106109dc576109dc610fc8565b90506020028101906109ee9190610fde565b6040516020016109ff929190610f48565b604051602081830303815290604052805190602001209050838383818110610a2957610a29610fc8565b9050602002016020810190610a3e9190610f2b565b600082815260016020526040902080546001600160a01b0319166001600160a01b0392909216919091179055838383818110610a7c57610a7c610fc8565b9050602002016020810190610a919190610f2b565b6001600160a01b0316817fcb00c173a20fb0fc4b9d0569677df64ef239858343352e1a20b1cfa4bc866662888886818110610ace57610ace610fc8565b9050602002810190610ae09190610fde565b604051610aee929190610f83565b60405180910390a350600101610844565b5050505050565b610b0e610c66565b6001600160a01b038116610b3857604051631e4fbdf760e01b8152600060048201526024016102cc565b610b4181610c93565b50565b60008083604051602001610b589190611052565b604051602081830303815290604052805190602001209050826001600160a01b03167f00000000000000000000000000000000000000000000000000000000000000006001600160a01b03166302571be3836040518263ffffffff1660e01b8152600401610bc891815260200190565b602060405180830381865afa158015610be5573d6000803e3d6000fd5b505050506040513d601f19601f82011682018060405250810190610c099190611081565b6001600160a01b031614949350505050565b60008082604051602001610c2f9190611052565b60408051601f198184030181529181528151602092830120600090815260019092529020546001600160a01b031615159392505050565b6000546001600160a01b031633146104df5760405163118cdaa760e01b81523360048201526024016102cc565b600080546001600160a01b038381166001600160a01b0319831681178455604051919092169283917f8be0079c531659141344cd1fd0a4f28419497f9722a3daafe3b4186f6b6457e09190a35050565b60008083601f840112610cf557600080fd5b50813567ffffffffffffffff811115610d0d57600080fd5b602083019150836020828501011115610d2557600080fd5b9250929050565b60008060208385031215610d3f57600080fd5b823567ffffffffffffffff811115610d5657600080fd5b610d6285828601610ce3565b90969095509350505050565b600060208284031215610d8057600080fd5b5035919050565b60008083601f840112610d9957600080fd5b50813567ffffffffffffffff811115610db157600080fd5b6020830191508360208260051b8501011115610d2557600080fd5b60008060208385031215610ddf57600080fd5b823567ffffffffffffffff811115610df657600080fd5b610d6285828601610d87565b602080825282518282018190526000918401906040840190835b81811015610e435783516001600160a01b0316835260209384019390920191600101610e1c565b509095945050505050565b6001600160a01b0381168114610b4157600080fd5b600080600060408486031215610e7857600080fd5b833567ffffffffffffffff811115610e8f57600080fd5b610e9b86828701610ce3565b9094509250506020840135610eaf81610e4e565b809150509250925092565b60008060008060408587031215610ed057600080fd5b843567ffffffffffffffff811115610ee757600080fd5b610ef387828801610d87565b909550935050602085013567ffffffffffffffff811115610f1357600080fd5b610f1f87828801610d87565b95989497509550505050565b600060208284031215610f3d57600080fd5b81356104c681610e4e565b8183823760009101908152919050565b6020808252601190820152702737ba103a34329022a7299037bbb732b960791b604082015260600190565b60208152816020820152818360408301376000818301604090810191909152601f909201601f19160101919050565b634e487b7160e01b600052604160045260246000fd5b634e487b7160e01b600052603260045260246000fd5b6000808335601e19843603018112610ff557600080fd5b83018035915067ffffffffffffffff82111561101057600080fd5b602001915036819003821315610d2557600080fd5b602080825260139082015272496e76616c696420454f41206164647265737360681b604082015260600190565b6000825160005b818110156110735760208186018101518583015201611059565b506000920191825250919050565b60006020828403121561109357600080fd5b81516104c681610e4e56fea264697066735822122008fd6d77753e694f9674b0f526c451fc1fbd14c968619483e8a548cbe239b20264736f6c634300081b0033",
  "linkReferences": {},
  "deployedLinkReferences": {}
}